:020000040800F2
:10000000802F002035240008B1050008B305000842
:10001000B7050008BB050008BF0500080000000088
:10002000000000000000000000000000C305000800
:10003000C505000800000000C7050008C905000844
:100040004F2400084F2400084F2400084F240008C4
:100050004F2400084F2400084F2400084F240008B4
:100060004F2400084F2400084F2400084F240008A4
:100070004F2400084F2400084F2400084F24000894
:100080004F2400084F2400084F2400084F24000884
:100090004F2400084F2400084F2400084F24000874
:1000A0004F2400084F2400084F2400084F24000864
:1000B0004F2400084F2400084F2400084F24000854
:1000C0004F2400084F2400084F2400084F24000844
:1000D0004F240008A3220008EF2300084F24000843
:1000E0004F2400084F2400084F24000800F002F8B5
:1000F00000F045F80AA090E8000C82448344AAF17D
:100100000107DA4501D100F03AF8AFF2090EBAE87A
:100110000F0013F0010F18BFFB1A43F0010318473B
:100120006447000084470000103A24BF78C878C1B3
:10013000FAD8520724BF30C830C144BF04680C60ED
:10014000704700000023002400250026103A28BF35
:1001500078C1FBD8520728BF30C148BF0B60704739
:10016000642903F0ED81782903F02682732903F0D6
:10017000D283002070471FB51FBD10B510BD03F01E
:10018000E5FB1146FFF7F7FF00F008F803F003FC6A
:1001900003B4FFF7F2FF03BC02F006F89EB000259F
:1001A000AA4601F0FBFF01F08FFF4FF4E13002F0AF
:1001B0000AF84FF4165002F0B1F800F0F7FA01F027
:1001C000BFFB01F08FFCE0A002F04CF801F098F9C1
:1001D00001F01AFA01F0A2FA00221146104601F0CD
:1001E0002AFB01220021102001F025FB0222002120
:1001F000202001F020FB03220021302001F01BFB16
:1002000004220021402001F016FB0522002150208D
:1002100001F011FB00220221104601F00CFB01222B
:100220000221102001F007FB06220421002001F02A
:1002300002FB07220421102001F0FDFA00F0B9FBB7
:10024000C1A002F00FF8C64E00274FF4FA70C5495E
:100250000860002435E000BFC34800680128FBD0D7
:100260001CA9072000F05BFB9DF870008007800B45
:100270009DF8711040EA01209DF872100843BB49B7
:1002800041F824009DF873008007800B9DF87410DE
:1002900040EA01209DF875100843B54941F8240053
:1002A000B24850F82400B04202D2B04850F824605E
:1002B000AE4850F82400B84202D9AC4850F8247037
:1002C000641CA84800688442C5DBA84850F8248014
:1002D000A848A949A94AAA4BCDE900210290A34AFE
:1002E000A0480168A24800F0C9FC2BE100249C4E04
:1002F0000027642420E09D4850F82410A4F16400F5
:100300009A4A42F820109A4850F82410A4F1640048
:10031000974A42F82010954850F82400B04202D283
:10032000924850F82460914850F82400B84202D90D
:100330008E4850F82470641CB4F5FA7FDBDB4FF470
:10034000C8747EE0601E894951F8208000BF86484D
:1003500000680128FBD01CA9072000F0E0FA9DF8F6
:1003600070008007800B9DF8711040EA01209DF815
:10037000721008437D4941F824009DF873008007FE
:10038000800B9DF8741040EA01209DF87510084319
:10039000774941F82400754850F82400404520D999
:1003A000724951F82410A1EB080003F0E7FB8346E3
:1003B000B81B03F0E3FB01460290584603F000FB34
:1003C00083467049584603F0EDFB8346584603F0D8
:1003D000B9FBA9EB0009B9F1000F21DA4FF00009D0
:1003E0001EE0624951F82410A8EB010003F0C6FB9F
:1003F0008346B81B03F0C2FB01460290584603F047
:10040000DFFA83465F49584603F0CCFB83465846E3
:1004100003F098FB8144B9F1FF0F01DD4FF0FF09B4
:1004200054480078012809D153480068782805DA33
:1004300051480578524890F800A001E00025AA46EE
:10044000641CB4F5FA7FFFF67DAF4A484A494B4A2F
:100450004B4BCDE900210290444A42480168444890
:1004600000F00CFC0020484908600DB1782D14DD27
:10047000642103A803F09CF9002244A103A802F020
:10048000FBFF022303AA1946202001F062F9002293
:1004900040A1424802F0F0FF16E0642103A803F0F7
:1004A00087F92A4639A103A802F0E6FF022303AA2E
:1004B0001946202001F04DF92A4636A1374802F0AE
:1004C000DBFF642001F03DFEBAF1000F15D164217D
:1004D00003A803F06DF900222CA103A802F0CCFFC1
:1004E000022303AA0421202001F033F9002229A1CC
:1004F0002A48801C02F0C0FF14E0642103A803F026
:1005000057F9524621A103A802F0B6FF022303AA1D
:100510000421202001F01DF952461EA11F48801C15
:1005200002F0AAFF75B1782D0CDC1DA001F09AFE37
:100530001A4801F097FE1DA001F094FE1749022011
:1005400001F016FDD2E600000D0A204D415833306F
:100550003130322020696E697420200D0A000000BD
:10056000FFFF03000000002024812142200800201A
:1005700050000020100000200C0000200800002087
:100580000400002000007F43840121423A252D33DE
:10059000640000002530327800000000C2270020EF
:1005A00053656E6420646174613A20000D0A000096
:1005B000704700BFFEE700BFFEE700BFFEE700BFD9
:1005C000FEE7704770477047704700000CB5002089
:1005D000019000906C48006840F480306A490860DF
:1005E00000BF6948006800F4003000900198401C8A
:1005F0000190009818B90198B0F5A06FF1D1624848
:10060000006800F4003010B10120009001E00020EB
:1006100000900098012843D15C48006840F0100029
:100620005A4908600846006820F003000860084640
:10063000006840F002000860534840685249486032
:100640000846406848600846406840F4806048605A
:100650000846406820F47C1048600846406840F432
:10066000E81048600846006840F08070086000BFED
:100670004548006800F000700028F9D04248406802
:1006800020F00300404948600846406840F00200FE
:10069000486000BF3C48406800F00C000828F9D1D1
:1006A0000CBD10B5FFF792FF10BD10B536480068BD
:1006B00040F0010034490860084640683449084069
:1006C0003149486008460068324908402E490860B0
:1006D0000846006820F4802008600846406820F43E
:1006E000FE0048604FF41F008860FFF7DAFF4FF00C
:1006F00000602949086010BD10B5002100200022CB
:10070000214B5B6803F00C0121B1042906D00829B4
:1007100028D107E0214B224C236027E01F4B204CBF
:10072000236023E0184B5B6803F47010164B5B6882
:1007300003F48032022303EB904022B9194B434368
:10074000174C23600DE0104B5B6803F4003323B1BA
:10075000144B4343124C236003E0104B4343104CB3
:10076000236003E00D4B0E4C236000BF00BF064B1F
:100770005B68C3F303130C4CE15C094B1B68CB4073
:10078000074C236010BD0000001002400020024012
:100790000000FFF8FFFFF6FE08ED00E000127A000F
:1007A0001400002000093D001800002008B50121B8
:1007B000042002F07BF90220ADF8000010208DF833
:1007C000030003208DF802006946044801F0B2FEE0
:1007D0000221024801F05BFF08BD00000008014053
:1007E00070B505460C4600F0E3FCAE2000F098FD25
:1007F00000F023FD00B111E0284600F091FD00F06B
:100800001CFD00B10AE0204600F08AFD00F015FD55
:1008100000B103E000F0F0FC012070BD00F0ECFC42
:100820000020FAE770B5044600F0C2FCAE2000F0EC
:1008300077FD00F002FD00B119E0204600F070FDE8
:1008400000F0FBFC00B112E000F0B2FCAF2000F0C1
:1008500067FD00F0F2FC00B109E0002000F08FFD20
:10086000054600F03AFD00F0C7FC284670BD00F0D8
:10087000C3FC0020FAE72DE9F04782460C461746F4
:1008800000253E4600F094FCAE2000F049FD00F04B
:10089000D4FC00B13FE0504600F042FD00F0CDFC3A
:1008A00000B138E000F084FCAF2000F039FD00F02A
:1008B000C4FC00B12FE029E0002000F060FD80467C
:1008C00000F0E8FC002000F05AFD814600F0E2FC58
:1008D00049EA082024F82500002000F050FD804659
:1008E00000F0D8FC002000F04AFD8146012E02D124
:1008F00000F0F3FC01E000F0CDFC49EA082004EB35
:1009000085014880701EC6B2681CC5B2002ED3D1C6
:1009100000F072FC00BF00F06FFCBDE8F08770B51E
:1009200005460C460020FFF77DFF0120FFF77AFF08
:1009300000F03EFCAE2000F0F3FC00F07EFC00B1C5
:100940002AE0284600F0ECFC00F077FC00B123E040
:1009500000F02EFCAF2000F0E3FC00F06EFC00B1D4
:100960001AE0012000F00BFD2070012000F007FDCF
:100970006070012000F003FDA070012000F0FFFC7A
:10098000E070012000F0FBFC2071002000F0F7FC7B
:10099000607100F031FC00BF00F02EFC70BD10B59E
:1009A00040210920FFF71CFF40210920FFF718FF15
:1009B00010BD08B50121082002F078F84FF400704E
:1009C000ADF8000004208DF803006946414801F0AD
:1009D000B1FD00F0D3FBFFF7E2FFC0210220FFF7DB
:1009E000FFFE00210320FFF7FBFE00210420FFF79C
:1009F000F7FE00210520FFF7F3FE00210620FFF798
:100A0000EFFE0F210820FFF7EBFE03210920FFF77F
:100A1000E7FE27210A20FFF7E3FE24210C20FFF741
:100A2000DFFE24210D20FFF7DBFE7F211020FFF7E2
:100A3000D7FE08BD70B504460D462A462146AE20B5
:100A400000F03CFD70BD70B504460D462A462146B7
:100A5000AE2000F014FD70BDFEB506460C46002029
:100A60003060206002A9FFF7EEFF02A90120FFF726
:100A7000EAFF06236A460721AE2000F0D1FC9DF86C
:100A800000502D043068284430609DF801502D023C
:100A90003068284430609DF8025030682844306047
:100AA0009DF803502D042068284420609DF80450D0
:100AB0002D022068284420609DF8055020682844B5
:100AC00020603068C0F3110030602068C0F311006E
:100AD0002060FEBD000C014030B50C46012213E041
:100AE00050F82230114605E04D1E50F8255040F8D0
:100AF0002150491E002904DD4D1E50F825509D420D
:100B0000F2DC40F82130521CA242E9DB30BDF0B5E6
:100B100003461546012217E051F82240104605E031
:100B2000461E51F8266041F82060401E002808DD6E
:100B300053F82470461E51F8266053F82660B742D9
:100B4000EEDC41F82040521CAA42E5DBF0BD2DE965
:100B5000F04F05460C469246984629465046226874
:100B6000FFF7D5FF4FF0FF3621E0D4F800B0701C3E
:100B70002060771C18E055F82710701C10B94FF052
:100B8000FF3001E055F82600A1EB0009C14503DC68
:100B9000C8F10000814506DA55F827102268501C7C
:100BA000206045F822107F1C5F45E4DB761C20683E
:100BB000B042DADC28462168FFF78EFFBDE8F08FEF
:100BC000F0B505461C46059E012000270F6030E069
:100BD00052F82070B7422BDD52F820C0471E52F861
:100BE0002770BC4524DD012300E05B1CC718A74229
:100BF00007DA52F8207000EB030C52F82CC067455E
:100C0000F3D052F8207000EB030C52F82CC067456B
:100C10000CDD0F680F2F09DAD1F800C00CF10107C5
:100C20000F6045F82C005F1C384402E0184400E0D7
:100C3000401C671E8742CBDCF0BD2DE9F847054616
:100C40000C4616461F46DDE90A9ADDF824803B462D
:100C5000324621462846CDF80080FFF7B1FF4B46CB
:100C6000324621462846FFF772FF2068504501DAD8
:100C7000206800E050462060BDE8F8872DE9FF4F6E
:100C8000C6B08846994600204590002406E0469864
:100C900050F82410459808444590641C4445F6DB00
:100CA0004598B0FBF8F04590002408E0469850F8CD
:100CB00024104598081AFE4941F82400641C444554
:100CC000F4DB002417E0FA4850F824100246601CB8
:100CD00052F820000144A01C52F820000144E01CFE
:100CE00052F820000F183846F91707EB9171891058
:100CF00042F82410641CB4F5F87FE4DB00240AE019
:100D0000EB49601C51F8200051F82410401AE949C1
:100D100041F82400641CB4F5F77FF1DD00240EE0F7
:100D2000E44951F824200B46611C53F82110501857
:100D300000EBD07149101A4642F82410641CB4F537
:100D4000F77FEDDB00251BE0002043902C460BE0F5
:100D5000D84850F82410601BD74A32F81020439826
:100D600001FB12004390641C681D8442F0DB40F2DA
:100D70007A41439890FBF1F0CE4941F825006D1C73
:100D8000B5F5F47FE0DD00204190002410E0C94873
:100D900050F82400002803DDC64850F8240003E082
:100DA000C44850F824004042419908444190641CD2
:100DB000B4F5F77FEBDD40F2EF11419890FBF1F0D5
:100DC000419005210822419840F2EF13CDE901211D
:100DD0000090B84A40A912A8FFF72FFF00201190F9
:100DE0004098022821DB01240BE012A850F82410BF
:100DF000601E12AA52F82000091A11980844119096
:100E0000641C40988442F0DB4098401E119991FB8D
:100E1000F0F0119041F27071119891FBF0F154983B
:100E2000016001215598017005E0A44954980160C2
:100E3000002155980170002407E012A850F8240002
:100E4000801C30A941F82400641C40988442F4DBE3
:100E500000240CE0469850F82400954941F82400FD
:100E6000489850F82400964941F82400641C4445F1
:100E7000F0DB0020429000242DE00120449030A8B7
:100E800050F824A04FF080703F900AF10500B0F5B3
:100E9000F77F1FDC0A3800281CDD054611E0844876
:100EA00050F825103F9881420ADA449808B1002092
:100EB00044907F4850F825003F9021A840F82450E6
:100EC0006D1C0AF105008542E9DB449810B942988F
:100ED000401C4290641C40988442CEDB4298022819
:100EE00008DA7648C9F800000021539801704AB02A
:100EF000BDE8F08F00242EE06D4951F824200B4608
:100F0000611C53F821100A44A11C53F821100A4413
:100F1000E11C53F821105018C11700EB9171891092
:100F20001A4642F82410664951F824200B46611CE9
:100F300053F821100A44A11C53F821100A44E11C63
:100F400053F821105018C11700EB917189101A46FF
:100F500042F82410641CB4F5F87FCDDB0020049027
:100F60000026002404E0002005A941F82400641CA8
:100F7000052CF8DB00240DE021A850F82400B0F582
:100F8000FA7F06DD4D48C9F8000000215398017032
:100F9000ADE7641C42988442EEDB0024AFE04FF0E2
:100FA0007F400D900C9021A9601C51F8200051F851
:100FB0002410401A0A2879DD21A850F8245016E0A0
:100FC0003B4850F825100C98814204DD384850F811
:100FD00025000C900A953A4850F825100D9881424A
:100FE00004DD374850F825000D900B956D1C21A9A4
:100FF000601C51F82000A842E2DC601C51F820007F
:101000002F4951F8200021A951F824102C4A52F8F8
:101010002110401A21A951F824200B99891A48431C
:10102000109021A9601C51F8200051F82410411A99
:10103000109890FBF1F021A951F82410204A52F8A1
:1010400021100844109011460B9851F82010109868
:10105000081A109021A9601C51F82000144951F879
:10106000200021A951F82410114A52F82110401AE9
:1010700021A951F824200A99891A48430F9021A9DF
:10108000601C51F8200051F82410411A0F9890FB71
:10109000F1F021A951F82410054A52F82110084412
:1010A0000F9011460B9851F820100BE026E000003D
:1010B000B0170020F00F00203C3D000819FCFFFF96
:1010C000801F00200F98081A0F900C991098484321
:1010D000C01103900D990F984843C711002F0DDDE3
:1010E000052E0BDA039848B1039800EB80008000CE
:1010F00090FBF7F005A941F82600761C641C429885
:10110000401EA0423FF74BAF314605A8FFF7E4FC75
:10111000304606EBD0714FEA610BBBF1010F0CDDDD
:10112000ABF1010105AA52F8211052F82B208818C2
:1011300000EBD0714910049103E005A850F82B0092
:101140000490049802280DDD0498B8280ADA0949A9
:101150000498085C0E900E98C9F80000012153987D
:10116000017005E00448C9F800000021539801709F
:1011700000BFBCE67A3D000819FCFFFF08B501215D
:10118000082001F093FC4FF44060ADF800001020FF
:101190008DF8030003208DF802006946D54801F060
:1011A000C9F90120D4490860D449C1F8AC0108BD8F
:1011B00010B5D048001D006820F47040CD49091DCD
:1011C00008600846006840F4E04008600120CA4911
:1011D000091D0860C949C1F8A801042000F08DFF6D
:1011E0000020C549091D0860042000F086FF00208A
:1011F000C249C1F8A80110BD10B5BE48001D006865
:1012000020F47040BB49091D08600846006840F49E
:10121000E04008600020B8490860B849C1F8AC0156
:10122000042000F06AFF0120B3490860B349C1F807
:10123000AC01042000F061FF10BD10B50024AD48E2
:10124000001D006820F47040AA49091D0860084686
:10125000006840F4804008600120A749091D08602B
:1012600000F04BFF0120A549C1F8A80100F045FF9F
:1012700007E0601CC4B2FA2C03DDFFF7BDFF0120BC
:1012800010BD9D487C3800680028F2D19A4908605A
:1012900000BFF5E710B50020974908609548001D8C
:1012A000006820F470409349091D086008460068F2
:1012B00040F4E040086000209049C1F8AC010220F1
:1012C00000F01BFF01208C490860022000F015FF90
:1012D00000208A49C1F8A80110BD10B50020864938
:1012E00008608448001D006820F470408149091D91
:1012F00008600846006840F4E040086001207F492B
:10130000C1F8AC01022000F0F8FE01207A49086023
:10131000022000F0F2FE00207849C1F8A80110BDBB
:1013200070B504467348001D006820F47040714990
:10133000091D08600846006840F4E040086000208D
:101340006D490860002517E0E0096B49091D086038
:101350006006040E022000F0D0FE01206749C1F8AB
:10136000A801022000F0C9FE0020634908600220A5
:1013700000F0C3FE681CC5B2082DE5DB70BD70B57A
:10138000054600245B48001D006820F47040594960
:10139000091D08600846006840F480400860002687
:1013A00016E0002054490860022000F0A6FE01204B
:1013B0005249C1F8A8016006040E4F487C38006805
:1013C00008B1601CC4B2012000F097FE701CC6B2C8
:1013D000082EE6DB15B9FFF780FF01E0FFF75AFFA3
:1013E000204670BD2DE9F04107460D461646FFF731
:1013F000DFFE3846FFF794FFFFF71FFF002406E0EB
:10140000285DFFF78DFFFFF718FF601CC4B2B442E0
:10141000F6DBFFF7F1FE0A2000F093FEBDE8F08155
:101420002DE9F0410746884614461D46FFF7C0FEE9
:101430003846FFF775FFFFF700FF4046FFF770FFE4
:10144000FFF7FBFE47F00100FFF76AFFFFF7F5FE2D
:10145000002605E00120FFF792FFA055701CC6B2E0
:10146000681EB042F6DC0020FFF789FF691E605459
:10147000FFF7C2FE0A2000F064FEBDE8F08170B5FF
:1014800004460D461646FFF793FE2046FFF748FF39
:10149000FFF7D3FE2846FFF743FFFFF7CEFEFFF727
:1014A00087FE44F00100FFF73BFFFFF7C6FE002078
:1014B000FFF765FF3070FFF79FFE70BD70B5064601
:1014C0000C461546FFF774FE3046FFF729FFFFF77D
:1014D000B4FE2046FFF724FFFFF7AFFE2846FFF7D4
:1014E0001FFFFFF7AAFEFFF787FE0A2000F029FE84
:1014F00070BD0000000C0140A88121420080214203
:1015000000B585B00121480501F0DDFA0121082070
:1015100001F0CCFAC020ADF8000003208DF80200E5
:101520001C208DF803006946F74801F003F8F748DE
:1015300001F092FD0020ADF808004BF6FF70ADF809
:101540000A003020ADF80C004FF48060ADF80E00BA
:101550000001ADF81000EE4801900121EB4801F0C8
:1015600012FE01A9E94801F090FD05B000BD70B57B
:1015700004460D4600BF4FF40031E44801F02AFF55
:101580000028F8D10121E14801F021FE00BFE14926
:10159000DE4801F0FDFE0028F9D000227821DB486A
:1015A00001F06BFE00BFDC49D84801F0F1FE0028D5
:1015B000F9D02146D54801F05AFE00BFD649891C12
:1015C000D24801F0E5FE0028F8D02946CF4801F0C6
:1015D0004EFE00BFD049891CCC4801F0D9FE00283E
:1015E000F8D00121C94801F0FEFD70BD10B50446D8
:1015F00021460020FFF7BBFF10BD10B50446214671
:101600004020FFF7B4FF10BD10B5642000F099FD35
:10161000AE20FFF7EBFF2020FFF7E8FF1020FFF7D9
:10162000E5FFB020FFF7E2FFC820FFF7DFFF002053
:10163000FFF7DCFF1020FFF7D9FF4020FFF7D6FFB0
:101640008120FFF7D3FFFF20FFF7D0FFA120FFF796
:10165000CDFFA620FFF7CAFFA820FFF7C7FF3F2056
:10166000FFF7C4FFA420FFF7C1FFD320FFF7BEFFA1
:101670000020FFF7BBFFD520FFF7B8FFF020FFF7F2
:10168000B5FFD920FFF7B2FF2220FFF7AFFFDA2026
:10169000FFF7ACFF1220FFF7A9FFDB20FFF7A6FF43
:1016A0002020FFF7A3FF8D20FFF7A0FF1420FFF7F6
:1016B0009DFFAF20FFF79AFF10BD70B504460D46A1
:1016C00005F1B001C8B2FFF791FF102141EA1410F3
:1016D000FFF78CFF04F00F0141F00100FFF786FFD8
:1016E00070BD70B50646002415E004F1B001C8B223
:1016F000FFF77CFF0020FFF779FF1020FFF776FF50
:10170000002504E03046FFF778FF681CC5B2802D45
:10171000F8DB601CC4B2082CE7DB70BD10B50020FC
:10172000FFF7DFFF10BD10B58D20FFF75FFF14201E
:10173000FFF75CFFAF20FFF759FF10BD10B58D20FC
:10174000FFF754FF1020FFF751FFAE20FFF74EFFC9
:1017500010BD2DE9F0470646894617469A464FF0D8
:10176000000800240025BAF1010F03D0BAF1020FDE
:101770005ED125E020E0785D203800F0FF087E2E65
:1017800004DD002609F1010000F0FF09494630465A
:10179000FFF793FF002409E008EB48015F4A02EBE2
:1017A0004101085DFFF729FF601CC4B2062CF3DB82
:1017B000B01DC6B2681CC5B2785D0028DBD137E029
:1017C00032E0785D203800F0FF08782E04DD002636
:1017D00009F1010000F0FF0949463046FFF76DFFAF
:1017E000002407E004EB08114D4A505CFFF705FFA9
:1017F000601CC4B2082CF5DB09F10100C1B230460F
:10180000FFF75BFF002408E004EB08110831444AAD
:10181000505CFFF7F2FE601CC4B2082CF4DB06F14A
:101820000800C6B2681CC5B2785D0028C9D100BFE7
:1018300000BFBDE8F0872DE9F04180460F4616460F
:101840000024002539464046FFF737FF00BF08E077
:10185000344A02EB8611485DFFF7CFFE6D1C601C19
:10186000C4B2102CF4DB0025781CC1B24046FFF74F
:1018700024FF00240AE07100491C2A4A02EB4111AE
:10188000485DFFF7BAFE6D1C601CC4B2102CF2DB81
:10189000BDE8F0812DE9F05F06460F4690461C46F4
:1018A000DDF828A04FF0000BE11704EB5171C910CF
:1018B000A4EBC10131B92046E11704EB5171C1F32A
:1018C000C70506E02046E11704EB5171C910491C19
:1018D000CDB23D4614E029463046FFF7EEFEB14654
:1018E0000AE059460BF1010B1AF80100FFF785FEDB
:1018F00009F1010000F0FF09C145F2DB681CC5B227
:10190000A542E8DBBDE8F09F000C01400054004018
:10191000400D03000100030082000700323E000872
:101920005A4000084A46000810B5F94800F09AFCF1
:101930000020F84908706421F54801F017FF10BD38
:1019400010B5F5A000F08EFCF9A001F089FD4FF470
:10195000967000F0F6FBF8A000F084FCFDA1EC48C6
:1019600001F0F2FEFC490860FFF7DEFF11E0FFF72F
:10197000DBFFEFA001F074FD4FF4967000F0E1FB87
:10198000EDA000F06FFCF3A1E14801F0DDFEF249AB
:101990000860F14800680028E9D0F0A001F060FD7F
:1019A0004FF4967000F0CDFBEFA1D94801F0CCFECA
:1019B000E9490860FFF7B8FF0EE0FFF7B5FFE7A0C1
:1019C00001F04EFD4FF4967000F0BBFBE6A1D0484D
:1019D00001F0BAFEE0490860DF4800680028ECD05A
:1019E000E4A001F03DFD4FF4967000F0AAFBE4A1E5
:1019F000C74801F0A9FED8490860FFF795FF0EE03F
:101A0000FFF792FFDBA001F02BFD4FF4967000F082
:101A100098FBDBA1BE4801F097FECF490860CE4895
:101A200000680028ECD0D8A001F01AFD4FF49670A1
:101A300000F087FBC7A1B64801F086FEC6490860E2
:101A400005E0C4A1B24801F07FFEC3490860C24866
:101A500000680028F5D0FFF767FFCEA001F000FD79
:101A60004FF4967000F06DFBBAA1A94801F06CFE2E
:101A7000B949086005E0B7A1A54801F065FEB6497F
:101A80000860B54800680028F5D0FFF74DFFCFA0EB
:101A900001F0E6FC4FF4FA6000F053FBB5A001F052
:101AA000DFFC4FF4967000F04CFBCBA1984801F09E
:101AB0004BFEA9490860FFF737FF0EE0FFF734FF40
:101AC000ACA001F0CDFC4FF4967000F03AFBC2A13F
:101AD0008F4801F039FEA04908609F48006800283F
:101AE000ECD010BD10B56421894801F03FFEFFF72E
:101AF0001BFF8FA001F0B4FC4FF4967000F021FBA7
:101B000094A1834801F020FE93490860FFF70CFF81
:101B10000EE0FFF709FF86A001F0A2FC4FF49670DB
:101B200000F00FFB8BA17A4801F00EFE8A49086095
:101B3000894800680028ECD0A8A001F091FC4FF47F
:101B4000967000F0FEFA83A1714801F0FDFD824914
:101B50000860FFF7E9FE81A001F082FC4FF4967067
:101B600000F0EFFA80A16A4801F0EEFD7A490860C2
:101B7000FFF7DAFE7FA001F073FC4FF4967000F0DF
:101B8000E0FA95A1624801F0DFFD73490860FFF7B4
:101B9000CBFE0EE0FFF7C8FE76A001F061FC4FF42B
:101BA000967000F0CEFA8CA1594801F0CDFD6A493B
:101BB0000860694800680028ECD08BA001F050FC58
:101BC0004FF4967000F0BDFA62A1514801F0BCFDDF
:101BD00061490860FFF7A8FE0DE0FFF7A5FE82A0AF
:101BE00001F03EFC642000F0ACFA5AA1484801F034
:101BF000ABFD59490860584800680028EDD07EA028
:101C000000F030FB81A001F02BFC4FF4967000F047
:101C100098FA81A13E4801F097FD4F490860FFF70F
:101C200083FE11E0FFF780FE78A001F019FC40F67A
:101C3000B83000F086FA7BA000F014FB76A134489F
:101C400001F082FD44490860434800680028E9D05B
:101C50007BA000F007FB81A001F002FC4FF496701E
:101C600000F06FFA80A12A4801F06EFD3A49086041
:101C70007FA000F0F7FA3848006800F0F3FA7CA083
:101C800000F0F0FA34480068E0B133480068807929
:101C90003038314909684979303901EB810100EB6D
:101CA0004100744908700846007863280AD108E0AA
:101CB00071A000F0D7FA4FF4967000F042FAFFF7E7
:101CC00011FFF5E7EFE0FFF72FFE64A001F0C8FB7E
:101CD0004FF4967000F035FA63A10D4801F034FD21
:101CE0001D4908600846006888B108460068807988
:101CF000303809684979303901EB810100EB410046
:101D00005C49087008460078632800D1CAE0CAE040
:101D1000BC2800203A000020426567696E20746F7D
:101D200020696E697420424339352E2E2E0A000038
:101D300041540D0A000000005761697420666F72FB
:101D4000204243393520726573706F6E73652E2E95
:101D50002E0A00004F4B00002800002041542B4E5B
:101D600042414E443F0D0A002B4E42414E443A350B
:101D70000000000041542B43494D490D0A0000006A
:101D8000343630313100000041542B4346554E3D2E
:101D9000300D0A0041542B4E4344503D696F742D61
:101DA000636F6170732E636E2D6E6F7274682D3465
:101DB0002E6D79687561776569636C6F75642E63E4
:101DC0006F6D2C353638330D0A00000041542B4E10
:101DD00052420D0A000000003436300041542B43BB
:101DE0004D45453D310D0A0041542B434741545464
:101DF0003D310D0A00000000BCA4BBEECDF8C2E7E7
:101E00002E2E2EB3C9B9A60D0A00000041542B4353
:101E1000474154543F0D0A002B43474154543A3133
:101E2000000000007761697420666F7220636F6E36
:101E30006E656374206E65742E2E2E0A00000000FD
:101E4000B2E9D1AFBCA4BBEECDF8C2E7D7B4CCACFD
:101E50002E2E2EB3C9B9A60D0A00000041542B4303
:101E600053510D0A000000002B43535100000000A5
:101E70000D0A000050270020D0C5BAC5CBD1CBF742
:101E8000CAA7B0DCA3ACC7EBB2E9BFB4D4ADD2F201
:101E9000210D0A00AFF2200000F0E4F94FF4967033
:101EA00000F04FF9F6E75A48006800283FF40BAFFE
:101EB000FFF73AFD57A001F0D3FA4FF4967000F007
:101EC00040F957A1594801F03FFC5149086058A119
:101ED000564801F039FC59490860FFF725FD14E028
:101EE000FFF722FD4BA001F0BBFA4FF4967000F013
:101EF00028F94BA14D4801F027FC454908604CA149
:101F00004A4801F021FC4D4908604148006818B971
:101F10004A4800680028E3D049A001F0A1FA4FF434
:101F2000967000F00EF9AFF2D411404801F00CFCAD
:101F300037490860FFF7F8FC0FE0FFF7F5FC40A019
:101F400001F08EFA4FF4967000F0FBF8AFF2FC113E
:101F5000364801F0F9FB2E4908602D48006818B991
:101F6000364800680028E8D039A000F07BF910BDA1
:101F700070B504460D462A4621463AA001F070FA93
:101F80004FF4967000F0DDF8AFF23821274801F0E9
:101F9000DBFB1F4908600846006828B135A000F047
:101FA00061F9FFF7C1FC14E036A001F059FA4FF4D3
:101FB000967000F0C6F837A11C4801F0C5FB144923
:101FC00008600846006810B139A000F04BF9FFF72F
:101FD000ABFCFFF7A9FC70BD10B500200C490860F0
:101FE0000A2000F0AEF836A1104801F0ADFB084918
:101FF00008600846006850B1FFF796FC002404E032
:1020000000200A490855601CC4B2642CF8DB10BDDE
:102010002800002041542B43455245473F0D0A00FC
:102020002B43455245473A302C310000BC28002054
:102030002B43455245473A312C3100002C000020FB
:1020400041542B43455245473D310D0A00000000E5
:10205000B3F5CABCBBAF42433935B3C9B9A60D0A03
:102060000000000041542B4E4D47533D25642C2564
:10207000730D0A0053454E442044415441204F4BB8
:10208000210D0A0041542B4E4D5354415455533F9A
:102090000D0A00002B4E4D5354415455533A4D4FA9
:1020A0005F444154415F454E41424C45440000006D
:1020B000436F6E6E656374204F4B210D0A00000064
:1020C0002B4E4E4D493A000010B56FF0040000F061
:1020D000A4FF2E4800682E49B0FBF1F02D4908708E
:1020E0000846007800EB4001C1EBC0104FF6FF71CD
:1020F00001EAC0002849088010BD0146254A12782F
:102100004A434FF0E0235A6100229A611A4612694D
:1021100042F001021A6100BF4FF0E022106900F0A6
:1021200001021AB100F48032002AF5D04FF0E0220B
:10213000126922F001024FF0E0231A6100229A6135
:1021400070470146144A12884A434FF0E0235A610F
:1021500000229A611A46126942F001021A6100BF18
:102160004FF0E022106900F001021AB100F4803251
:10217000002AF5D04FF0E022126922F001024FF060
:10218000E0231A6100229A617047000014000020C9
:1021900000127A00300000203200002010B54FF409
:1021A000A06000F0EBFE10BD014600BF704700BF0D
:1021B000994A128802F04002002AF9D0C2B2964B26
:1021C0001B1D1A80704710B586B00446012144F2E9
:1021D000040000F06BFC914800F0CCFC4FF4007060
:1021E000ADF8140003208DF8160018208DF81700A4
:1021F00005A98B4800F09EF94FF48060ADF81400FB
:1022000004208DF8170005A9854800F093F92520D2
:102210008DF8000003208DF801008DF802000120E8
:102220008DF80300684600F0AEFE01940020ADF882
:102230000800ADF80A00ADF80C00ADF810000C2055
:10224000ADF80E0001A9754800F0D7FC012240F25C
:102250002551724800F069FD0121704800F059FDD8
:1022600006B010BD0BE000BF6C49098801F04001C9
:102270000029F9D00178694A121D1180401C0178AB
:102280000029F0D1704710B5044600BF8021634893
:1022900000F01AFE0028F9D02146604800F0A6FDA3
:1022A00010BD10B540F225515C4800F023FE10B37C
:1022B0005A4800F09FFDC4B25A48008800F400401C
:1022C000C8B95848008800F4804060B10A2C03D097
:1022D00000205449088020E05248008840F4004023
:1022E0005049088019E00D2C06D14E48008840F472
:1022F00080404C49088010E04A480088C0F30D0037
:1023000049490C5447480088401C46490880084603
:102310000088C72801DD0020088010BD10B586B0F8
:1023200004460121042000F0C1FB0121480400F013
:10233000CAFB394800F01EFC0420ADF8140003204D
:102340008DF8160018208DF8170005A9344800F004
:10235000F1F80820ADF8140004208DF8170005A945
:102360002F4800F0E7F801940020ADF80800ADF820
:102370000A00ADF80C00ADF810000C20ADF80E000E
:1023800001A9254800F039FC26208DF80000002026
:102390008DF8010001208DF802008DF803006846D9
:1023A00000F0F1FD012240F225511B4800F0BDFC78
:1023B0000121194800F0ADFC06B010BD70B504460F
:1023C0000D464021144800F08CFD00260CE014F866
:1023D000011B114800F00AFD00BF40210E4800F02B
:1023E00073FD0028F9D0761CAE42F0D370BD10B555
:1023F00040F22551084800F07DFD58B1064800F034
:10240000F9FCC1B2094802780078401C074B1870EB
:102410000748815410BD00000044004000380140CE
:102420000008014038000020F42700203A00002076
:10243000BC2800200948804709480047FEE7FEE71E
:10244000FEE7FEE7FEE7FEE7FEE7FEE7FEE7FEE764
:1024500004480549054A064B70470000AB060008D2
:10246000ED00000880290020802F0020802B002014
:10247000802B002010B50446CC48844208D10121AD
:10248000042000F02DFB0021042000F029FB46E091
:10249000C748844208D10121082000F021FB002117
:1024A000082000F01DFB3AE0C248844208D1012117
:1024B000102000F015FB0021102000F011FB2EE091
:1024C000BD48844208D10121202000F009FB0021F1
:1024D000202000F005FB22E0B848844208D1012109
:1024E000402000F0FDFA0021402000F0F9FA16E04B
:1024F000B348844208D10121802000F0F1FA002184
:10250000802000F0EDFA0AE0AE48844207D10121B4
:10251000801500F0E5FA0021A01500F0E1FA10BDE9
:1025200010B50121084600F0DBFA0021012000F07F
:10253000D7FA10BD2DE9F041024600250026002003
:1025400000230024002791F803C00CF00F0591F838
:1025500003C00CF0100CBCF1000F03D091F802C0C6
:102560004CEA050591F800C0BCF1000F31D01468A9
:1025700000202BE04FF0010C0CFA00F3B1F800C082
:102580000CEA03069E4220D183004FF00F0C0CFA98
:1025900003F7BC4305FA03FC4CEA040491F803C0BA
:1025A000BCF1280F06D14FF0010C0CFA00FCC2F868
:1025B00014C00AE091F803C0BCF1480F05D14FF0F8
:1025C000010C0CFA00FCC2F810C0401C0828D1D342
:1025D0001460B1F800C0BCF1FF0F34DD5468002076
:1025E0002EE000F1080C4FF0010808FA0CF3B1F8E6
:1025F00000C00CEA03069E4221D183004FF00F0C6D
:102600000CFA03F7BC4305FA03FC4CEA040491F806
:1026100003C0BCF1280F05D100F1080C08FA0CF832
:10262000C2F8148091F803C0BCF1480F07D100F143
:10263000080C4FF0010808FA0CF8C2F81080401C92
:102640000828CED35460BDE8F0814FF6FF710180B9
:10265000022181700421C1707047024600209368F6
:102660000B400BB1012000E0002070470146886854
:1026700080B2704702460020D3680B400BB10120A6
:1026800000E0002070470146C86880B270470161D1
:102690007047416170470AB1016100E041617047D4
:1026A000C16070474FF480320A4382618161826168
:1026B00082698269704702460020434B18684FF6D2
:1026C0008073184040EA021008433F4B186070477F
:1026D0003E49C8617047F0B50A4600230024002136
:1026E000002500F00046B6F1004F02D1364EF169E8
:1026F00001E0354E7168C0F3034583B200F4401623
:10270000B6F5401F08D121F070612F4E766826F093
:1027100070662D4F7E6012E000F48016B6F5801FC3
:1027200006D1032606FA05F4A14341F0706106E0E4
:10273000460D360103FA06F6B14341F0706122B14D
:10274000460D360103FA06F6314300F00046B6F1B5
:10275000004F02D11C4EF16101E01B4E7160F0BDD3
:1027600030B500228B071C0F0F2303FA04F2164B1F
:1027700008338C1053F824309343134C08348D10D5
:1027800044F8253023468C1053F824308C07240F4E
:1027900000FA04F423430C4C08348D1044F825301F
:1027A00030BD0A49DC310860704700000008014074
:1027B000000C0140001001400014014000180140CD
:1027C000001C0140002001400000014000002042A8
:1027D000DF48006840F00100DD49086008464068B5
:1027E000DC490840DA49486008460068DA49084090
:1027F000D74908600846006820F480200860084631
:10280000406820F4FE0048604FF41F008860704765
:10281000CF49096821F48031CD4A11601146096819
:1028200021F480211160B0F5803F03D0B0F5802FF6
:102830000ED106E0C649096841F48031C44A1160EE
:1028400007E0C349096841F4A021C14A116000E0D2
:1028500000BF00BF704710B50146002200230020D2
:102860004A11012A02D1BA4C236806E0022A02D199
:10287000B74C236A01E0B64C636A01F01F020124E1
:1028800094401C400CB1012000E0002010BD38B580
:10289000002000900024002500BF3120FFF7DBFF5F
:1028A00005460098401C00900098B0F5A06F01D03C
:1028B000002DF2D03120FFF7CEFF08B1012400E057
:1028C0000024204638BD01460020A14A106820F0AF
:1028D000F80040EAC10010607047A04908607047E6
:1028E000024600209A4B586820F47C1042EA01030B
:1028F0001843974B586070479849086670470146DF
:102900000020934A506820F003000843506070474D
:102910008F48406800F00C007047014600208C4A48
:10292000506820F0F00008435060704701460020D6
:10293000874A506820F4E0600843506070470146C1
:102940000020834A506820F4605040EAC100506083
:10295000704729B17E4A527A02437D4B5A7204E095
:102960007B4A527A82437A4B5A7270477B49D831FC
:102970000860704701460020754A506820F44040C6
:102980000843506070470021714A20321170704A2C
:1029900082F82010012802D004280AD104E0012185
:1029A0006B4A2032117005E00521694A203211700E
:1029B00000E000BF00BF7047694908607047644984
:1029C000096A0143624A11627047654944390860E7
:1029D000704730B500210022002400235C4D6D6853
:1029E00005F00C0121B1042905D0082923D105E007
:1029F0005C4D056022E05B4D05601FE0544D6D6845
:102A000005F47012524D6D6805F48034022505EB13
:102A100092421CB9544D554305600BE04C4D6D6816
:102A200005F400351DB1504D5543056002E04D4D94
:102A30005543056002E04B4D056000BF00BF444DAB
:102A40006D6805F0F0010909484D6B5C0568DD40D3
:102A500045603F4D6D6805F4E061090A434D6B5CCC
:102A60004568DD4085603A4D6D6805F46051C90ADE
:102A70003E4D6B5C4568DD40C560354D6D6805F4C5
:102A80004041890B3A4D6B5CC568B5FBF3F50561B8
:102A900030BD29B12E4A526902432D4B5A6104E0E0
:102AA0002B4A526982432A4B5A61704729B1284AFE
:102AB00092690243264B9A6104E0254A9269824357
:102AC000234B9A61704729B1214AD2690243204BB6
:102AD000DA6104E01E4AD26982431D4BDA61704715
:102AE00029B11B4AD2680243194BDA6004E0184A44
:102AF000D2688243164BDA60704729B1144A1269D2
:102B00000243134B1A6104E0114A12698243104BCD
:102B10001A61704712494039086070470F49C8640C
:102B200070470B49C87170470948406A40F080708F
:102B300007494862704701460020054A92680A40EA
:102B40000AB1012000E000207047014988727047F7
:102B5000001002400000FFF8FFFFF6FE00004242B6
:102B60008004424200127A0000093D003B00002030
:102B70004B00002010B50446FB48844209D10121D6
:102B80008803FFF7ADFF00214FF48040FFF7A8FF57
:102B900032E0F648844209D101214804FFF7ADFF35
:102BA00000214FF40030FFF7A8FF25E0F0488442F1
:102BB00009D101218804FFF7A0FF00214FF48020F4
:102BC000FFF79BFF18E0EB48844209D10121C804BC
:102BD000FFF793FF00214FF40020FFF78EFF0BE07B
:102BE000E548844208D101210805FFF786FF00214E
:102BF0004FF48010FFF781FF10BD2DE9F04786B03C
:102C000005460E460024A24600BFA1460027B08913
:102C100000B100BF2F462C8A4CF6FF700440F088AC
:102C200004432C82AC894EF6F3100440B0883189FD
:102C30000843718908430443AC81AC8A4FF6FF40D6
:102C40000440B0890443AC8201A8FFF7C2FEC64825
:102C5000874202D1DDF810A001E0DDF80CA0A889C0
:102C600000F4004040B10AEBCA0000EB0A103168E2
:102C70004900B0FBF1F807E00AEBCA0000EB0A10CC
:102C800031688900B0FBF1F86420B8FBF0F0040172
:102C90002009642101FB1089A88900F4004040B19B
:102CA000322000EBC900B0FBF1F000F00700044354
:102CB00008E0322000EB09106421B0FBF1F000F0D5
:102CC0000F0004432C8106B0BDE8F0874FF4165185
:102CD000016000218180C18001810C21418100219E
:102CE0008181704710B502460020108A4FF2FF0321
:102CF00018400B884C8823438C882343CC8823437B
:102D00001843108210BD0021018041808180C18064
:102D1000704721B1828942F40052828104E08289A5
:102D20004DF6FF731A4082817047F0B503460024C8
:102D300000260025002040F66A17B94200D100BFE6
:102D40001846C1F3421401F01F06012707FA06F5E1
:102D5000012C01D10C3004E0022C01D1103000E034
:102D600014301AB107682F43076002E00768AF43C9
:102D70000760F0BD1AB1838A0B43838202E0838A25
:102D80008B4383827047028A4FF6F0731A400282A7
:102D9000028A0A430282704782894FF2FF731A4007
:102DA000828182890A438281704721B1828942F0FF
:102DB0000202828104E082894FF6FD731A4082810B
:102DC0007047028A4FF6DF731A400282028A0A4372
:102DD0000282704721B1028A42F48042028204E0FA
:102DE000028A4BF6FF731A4002827047C1F3080251
:102DF0008280704701468888C0F308007047818947
:102E000041F0010181817047028BD2B20283028BB3
:102E100042EA012202837047028B02F47F4202835E
:102E2000028B0A430283704721B1828A42F020025A
:102E3000828204E0828A4FF6DF731A4082827047F2
:102E400021B1828A42F01002828204E0828A4FF627
:102E5000EF731A408282704721B1828A42F00802E1
:102E6000828204E0828A4FF6F7731A4082827047AA
:102E700021B1828942F40042828103E08289C2F357
:102E80000E028281704721B1828A42F400628282FE
:102E900004E0828A4FF2FF731A4082827047828A6E
:102EA0004FF6FB731A408282828A0A4382827047FD
:102EB00021B1828A42F00202828204E0828A4FF6C5
:102EC000FD731A408282704702460020B1F5007FF0
:102ED00000D100BF13880B400BB1012000E000209F
:102EE000704701F40072B2F5007F00D100BFCA4301
:102EF0000280704770B502460024002300250020A0
:102F000040F66A16B14200D100BFC1F3421501F08C
:102F10001F03012606FA03F3012D02D196893340DF
:102F200006E0022D02D1168A334001E0968A334032
:102F30000C12012606FA04F41688344013B10CB1C1
:102F4000012000E0002070BD10B50022002340F6F3
:102F50006A14A14200D100BF0A1201249440A3B216
:102F6000DC43048010BD00000038014000440040F4
:102F700000480040004C00400050004031490143EF
:102F8000314A1160704770B5002100230F22C478C8
:102F900004B32D4C246804F4E064C4F5E064210A11
:102FA000C1F10403CA40447804FA03F18478144060
:102FB00021430901254C0678A155047804F01F052A
:102FC0000124AC4005786D11AD0005F1E025C5F890
:102FD000004109E0047804F01F050124AC401C4DB9
:102FE0000678761145F8264070BD1A4A0A40024319
:102FF000154B1B1F1A60704739B1134A121D126816
:103000000243114B1B1D1A6006E00F4A121D126885
:1030100082430D4B1B1D1A607047042808D14FF0E6
:10302000E021096941F004014FF0E022116107E05D
:103030004FF0E021096921F004014FF0E022116115
:10304000704700000000FA050CED00E000E400E02D
:1030500080E100E080FFFF1F10B50446F74884427E
:1030600009D101214805FFF748FD00214FF4001068
:10307000FFF743FD08E001218805FFF73EFD002131
:103080004FF48000FFF739FD10BD2DE9F04385B006
:1030900004460D460026B1460427DFF8A483A6881F
:1030A0004FF6C07006406846FFF793FCDDF80880D5
:1030B000E448B8FBF0F01FFA80F946EA0906A6805A
:1030C00020884FF6FE71084020800026DE492868DF
:1030D00088420CD828684000B8FBF0F087B2042F73
:1030E00000DA04273E4309F10100208427E0E88844
:1030F0004BF6FF71884206D1286800EB4000B8FB10
:10310000F0F087B209E0286800EBC00101EB001085
:10311000B8FBF0F087B247F48047C7F30B0008B95B
:1031200047F0010747F4004006434FF4967009FB4F
:1031300000F04FF47A7190FBF1F0401C2084A683DC
:10314000208840F00100208026884FF6F5300640A8
:10315000A8886989084306432680A88929890843E5
:10316000208105B0BDE8F08341F288310160002183
:1031700081804BF6FF71C1800021018141814FF4B4
:1031800080418181704721B1028842F001020280B2
:1031900004E002884FF6FE731A400280704721B1A6
:1031A000828842F40062828004E082884FF2FF73DA
:1031B0001A408280704721B1828842F48052828016
:1031C00004E082884EF6FF731A408280704721B176
:1031D000028842F48072028004E002884FF6FF63A6
:1031E0001A400280704721B1028842F400720280C6
:1031F00004E002884FF6FF531A400280704721B165
:10320000028842F48062028004E002884FF6FF33B5
:103210001A40028070470A46002181894FF60173E7
:10322000194002F0FE0319438181704721B1828960
:1032300042F00102828104E082894FF6FE731A4057
:103240008281704721B1028842F04002028004E08E
:1032500002884FF6BF731A40028070471AB1838804
:103260000B43838002E083888B4383807047018215
:1032700070470146088AC0B2704712B141F001019F
:1032800002E04FF6FE7319400182704708B502460E
:103290000020009000920098084400900098008858
:1032A00008BD21B1028842F40042028003E0028896
:1032B000C2F30E0202807047B1F5006F04D102889C
:1032C00042F40062028004E002884FF2FF731A4069
:1032D00002807047B1F5005F04D1028842F40052C9
:1032E000028004E002884DF6FF731A4002807047A6
:1032F00021B1028842F48052028004E002884EF636
:10330000FF731A4002807047B1F5006F04D1028844
:1033100042F40062028004E002884FF2FF731A4018
:103320000280704721B1028842F02002028004E04E
:1033300002884FF6DF731A40028070470146088BFF
:103340000012704721B1028842F01002028004E0AE
:1033500002884FF6EF731A400280704721B9028845
:1033600042F08002028004E002884FF67F731A4028
:1033700002807047B1F5804F05D0828B4BF6FF730A
:103380001A40828303E0828B42F48042828370473A
:1033900070B502460024002500230020958A138B77
:1033A0001B0445EA030626F07F4404EA01068E4228
:1033B00001D1012000E0002070BD10B501460020C1
:1033C000002300228B8A0A8B120443EA020424F0B1
:1033D0007F4010BD0CB502460020002301930093EE
:1033E00000920B0F019321F07F41019B1BB1009BC9
:1033F0001433009303E0090C009B18330093009BE7
:103400001B680B400BB1012000E000200CBD002226
:1034100021F07F42D3438382704730B502460020BB
:103420000023948801F0E06504EA154321F07F4110
:10343000948A0C4054B14BB1012008E00054004084
:1034400000127A0040420F00A0860100002030BD2B
:10345000002221F07F42D3438382704770470000EF
:103460000FB4044910B503AA029800F059FA10BC31
:103470005DF814FB340000200FB41CB5074B06AAFE
:103480007B4469460090059800F01BFA00206946CD
:1034900000F02AFA1CBC5DF814FB00006504000073
:1034A00070B5044685690068C10601D5302600E084
:1034B0002026C00707D070BDD4E9012130469047CF
:1034C000206A401C20626D1EF6D570BD70B50446A2
:1034D00085690078C00707D170BDD4E9012120209B
:1034E0009047206A401C20626D1EF6D570BD70B5F5
:1034F0000C460546012A05D02878800600D5EA69E1
:10350000002302E0012305E05B1C934202D2E05C51
:103510000028F9D1A869E618C01AA861286A1844D9
:1035200028622846FFF7BCFF04E0D5E9012114F822
:10353000010B9047B442F8D32846FFF7C7FF70BD90
:103540002DE9F0410646002410687529314616A57C
:1035500010D0AFF30080002802DA404213A507E044
:1035600031688A0701D512A502E0490704D511A5E3
:10357000012401E0AFF3008000210A2206F12407B4
:1035800009E0B0FBF2FCB0FBF2F302FB1C003030B0
:1035900078541846491C0028F3D123462A46304661
:1035A000BDE8F04100F02FB9000000002D00000040
:1035B0002B0000002000000070B504460D46214697
:1035C0001068AFF300802188090502D50F4A7A44BC
:1035D00002E00E4A7A440E32002104F1240305E091
:1035E00000F00F060009965D5E54491C0028F7D1D3
:1035F00020780023000704D5702D02D009B10223E2
:1036000011322046BDE8704000F0FDB8781200008D
:103610002DE9F05F894604464FF0000ADFF824B137
:10362000FB44C0F820A02046E168884700287DD0F0
:10363000252806D0D4E901219047206A401C206249
:10364000F1E700255F462046E168884720280646C6
:1036500007DB312E05D2B81910F8200C08B105434C
:10366000F1E7A80701D525F00405C4F81CA0002740
:10367000C4F818A02A2E09D0304600F099F938B3C2
:1036800004EB8708303EC8F8186019E059F8041BAD
:10369000204604EB87029161E1688847012F0646C6
:1036A00018D1E069002820DA25F020051DE0D8F8BF
:1036B000180000EB800006EB40003038C8F8180016
:1036C0002046E1688847064600F072F90028EED1EE
:1036D000012F0AD02E2E08D12046E16888477F1C92
:1036E0000646022F45F02005C4DBA069002803DA56
:1036F000404245F00105A061E80701D025F0100522
:10370000A6B1A6F14100192802D8203645F400657B
:103710004A463146204625604D46FCF721FD60B102
:10372000012807D0ED1D25F0070000E007E000F1BB
:10373000080978E705F1040975E730467AE7206A59
:10374000BDE8F09F4E12000030B505460B462A46F4
:1037500013F8014B12F8010B08B1A042F8D01CB1CC
:10376000002802D06D1CF1E7284630BD4FF0000262
:103770000429C0F0128010F0030C00F01B80CCF183
:10378000040CBCF1020F18BF00F8012BA8BF20F8F1
:10379000022BA1EB0C0100F00DB85FEAC17C24BF45
:1037A00000F8012B00F8012B48BF00F8012B7047EF
:1037B0004FF0000200B5134694469646203922BFCA
:1037C000A0E80C50A0E80C50B1F12001BFF4F7AF15
:1037D000090728BFA0E80C5048BF0CC05DF804EBF7
:1037E000890028BF40F8042B08BF704748BF20F865
:1037F000022B11F0804F18BF00F8012B7047704763
:103800007047704770472DE9F0470D46994692463C
:10381000044600F124080168880604D5E06921F017
:103820001001216000E00120A84201DD471B00E0FB
:103830000027A1697A1902EB0900081AA061207813
:10384000C00602D42046FFF72BFE002608E0D4E98C
:1038500001211AF806009047206A401C761C20625D
:103860004E45F4DB2078C0060AD52046FFF718FE47
:1038700006E0D4E9012130209047206A401C2062F4
:10388000381EA7F10107F4DC07E0D4E9012118F89C
:1038900005009047206A401C2062281EA5F1010502
:1038A000F3DC2046FFF712FE2078000602D5022046
:1038B000BDE8F0870120FBE701694A1C0261087836
:1038C000704700B58FB0CDE9013100210591054960
:1038D0007944CDE9031011466846FFF799FE0FB011
:1038E00000BD0000E5FFFFFF0A6802F8010B0A6057
:1038F000704710B5436913B1AFF3008001E0FFF7E3
:10390000F6FD012010BD127800F124010A7000229A
:103910004A700122EDE711684FF0FF32E9E700003D
:10392000074B70B50D467B44FFF7CBFF0446284696
:1039300000F008F810B14FF0FF3070BD204670BDA8
:1039400085E8FFFF007B00F080007047754600F0BF
:103950002BF8AE4605006946534620F00700854621
:1039600018B020B5FEF774FDBDE820404FF000060A
:103970004FF000074FF000084FF0000B21F0070157
:10398000AC46ACE8C009ACE8C009ACE8C009ACE89A
:10399000C0098D46704710B50446AFF3008020463D
:1039A000BDE81040FCF7F4BB004870472029002018
:1039B00030380A2801D201207047002070470000EB
:1039C0004FF47F0C1CEAD0121EBF1CEAD11392EAFE
:1039D0000C0F93EA0C0F00F0858090EA010F48BFAE
:1039E00042F4807240F4000C41F400002CF07F415E
:1039F00020F07F4000B58142A2EB03020FF2081CC9
:103A0000ACEB504EC0F100009EF800E04FEA4E0EC5
:103A100000FB0EFC38BF49004FEA2C1C02F5FA02ED
:103A20000CFB0EF34FEACE1E4FEA112C4FEAC121D8
:103A30000EEB635E42EB22420EFB0CFC4FEA1C5382
:103A400000FB03114FEA112C4FEA01310EFB0CFC75
:103A50004FEADC4C00FB0C11C14228BF09184CEBAB
:103A600003335DF804EB10EB410143EBC250B2F5B8
:103A70007C0F38BF704729D512F0F00F1CBF00F142
:103A8000C04000F0004070470081828384858687B3
:103A900088898B8C8D8E8F919293959697999A9C0D
:103AA0009D9FA0A2A3A5A7A8AAACAEB0B2B3B5B77C
:103AB000B9BCBEC0C2C5C7C9CCCED1D4D7D9DCDF52
:103AC000E2E6E9ECF0F3F7FAFE0000004FEA400C02
:103AD0000CF1807CBCF17E4F28BF7047B0F1C04034
:103AE00000F027B990EA010F0CEAD11348BF42F465
:103AF0008072624538BF634507D213F47F0F16D03A
:103B000080EA010000F00040704710B500F0CBF8EB
:103B1000097EFC3E00F005B880EA010000F000409C
:103B2000704780EA010000F0004000F002B912F492
:103B30007F0F04BF0248704780EA010000F0F9B827
:103B40000000C07F41000B0ED3F19E0208D950F453
:103B500000034FEA032323FA02F048BF40427047B4
:103B600010B500F0A0F800BF4992248000207047F3
:103B70006FF0004282EA200070470000B0FA80F344
:103B800010FA03F2C3F19D030AD0D90501EB12200C
:103B9000530638BF704700F1010008BF20F0010054
:103BA000704700004FF47F0C1CEAD0121EBF1CEAC5
:103BB000D11392EA0C0F93EA0C0F00F0478090EAC1
:103BC000010F48BF42F480724FF0004C4CEA0020D5
:103BD0004CEA012102EB0302A0FB0113A2F5000253
:103BE000002918BF43F001035B0028BF4FEA3303ED
:103BF00042EB22425FEA132C4CEBC2502EBFBCEBCF
:103C0000436FB2F57C0F70474FEA036CBCF1004F75
:103C100008BF20F00100B2F57C0F38BF70470BD50C
:103C200082F0FF0212F5803FC8BF704700F1C0402C
:103C3000D8BF00F00040704700F5000C5FEA4C0C64
:103C400048BF7047B0F1C04000F073B890EA010F70
:103C50000CEAD11348BF42F48072624538BF634515
:103C600004D280EA010000F00040704710B500F077
:103C70001AF800BF8900013E00F007B800F009B84B
:103C80005FEA410C5FEA1C6C08D080EA010000F09A
:103C900050B85FEA400C5FEA1C6CF6D14FF0004070
:103CA000A0F5800070470EF1020E2EF0030E5EF8B4
:103CB000044B244204D44FEA4102B2F17F4F11D8A1
:103CC0004FEA4003B3F17F4F0CD80ED14FEAD07CBE
:103CD000B2F17F4F0CEB4C0C0CF1020C08BF4CEB1B
:103CE000D17C04E04FF0080C01E04FEAD17C0CEBF2
:103CF0004C0324FA03F404F00704B4F1040C06D2D4
:103D00000EEB840CBDE810404CF0010C6047DFE87E
:103D10000CF0070802024FF00040A0F5800010BD33
:103D20000846420018BFD2F1807288BF00F0004000
:103D300010BDFF2141EAD050C00570472900140191
:103D40000002140129000000000000000000000033
:103D50000000000000000000000000000000000063
:103D60000000000000000000000000000000000053
:103D7000000000000000000000005F5F5F60606006
:103D80006161616161626262626263636363636312
:103D900063636464646464646464646464646464E5
:103DA00064646464646463636363636363636262DF
:103DB0006262626261616161606060605F5F5F5EFC
:103DC0005E5E5D5D5D5C5C5C5B5B5A5A595959583F
:103DD00058575756565555545453525251515050A6
:103DE0004F4E4E4D4C4C4B4A4A4948484746454534
:103DF0004443424241403F3E3E3D3C3B3A393838E5
:103E000037363534333231302F2E2D2C2B2A2928BA
:103E1000272625242322211F1E1D1C1B1A191716B5
:103E200015141311100F0E0C0B0A090706050302D7
:103E300001000000000000000000002F0000000052
:103E40000700070000147F147F1400242A7F2A1221
:103E50000062640813230036495522500000050310
:103E6000000000001C224100000041221C00001440
:103E7000083E08140008083E0808000000A0600082
:103E80000008080808080000606000000020100812
:103E90000402003E5149453E0000427F400000427E
:103EA00061514946002141454B31001814127F10E1
:103EB000002745454539003C4A4949300001710910
:103EC000050300364949493600064949291E0000C4
:103ED000363600000000563600000008142241006B
:103EE000001414141414000041221408000201519B
:103EF000090600324959513E007C1211127C007FA4
:103F000049494936003E41414122007F4141221C3E
:103F1000007F49494941007F09090901003E4149A3
:103F2000497A007F0808087F0000417F4100002097
:103F300040413F01007F08142241007F4040404043
:103F4000007F020C027F007F0408107F003E414189
:103F5000413E007F09090906003E4151215E007F74
:103F6000091929460046494949310001017F0101EB
:103F7000003F4040403F001F2040201F003F40388E
:103F8000403F0063140814630007087008070061CD
:103F90005149454300007F41410000552A552A55AB
:103FA000000041417F000004020102040040404043
:103FB0004040000001020400002054545478007F67
:103FC0004844443800384444442000384444487F3E
:103FD00000385454541800087E0901020018A4A4A3
:103FE000A47C007F080404780000447D4000004069
:103FF00080847D00007F102844000000417F400045
:10400000007C04180478007C0804047800384444D8
:10401000443800FC242424180018242418FC007CB4
:104020000804040800485454542000043F4440202D
:10403000003C4040207C001C2040201C003C4030C4
:10404000403C004428102844001CA0A0A07C004450
:1040500064544C44141414141414000000000000A0
:1040600000000000000000000000000000F8000058
:104070000000000000333000000000100C06100C9F
:104080000600000000000000000040C07840C0783A
:104090004000043F04043F040400007088FC083022
:1040A0000000001820FF211E0000F008F000E018BA
:1040B000000000211C031E211E0000F00888700073
:1040C00000001E2123241927211010160E000000C5
:1040D00000000000000000000000000000E01804E4
:1040E0000200000000071820400000020418E00051
:1040F00000000040201807000000404080F0804091
:1041000040000202010F01020200000000F0000066
:1041100000000101011F010101000000000000007A
:10412000000080B0700000000000000000000000EF
:104130000000000101010101010100000000000078
:10414000000000303000000000000000000080602F
:104150001804006018060100000000E010080810B4
:10416000E000000F102020100F00001010F80000D9
:1041700000000020203F2020000000700808088870
:104180007000003028242221300000300888884840
:1041900030000018202020110E000000C02010F870
:1041A000000000070424243F240000F80888880841
:1041B00008000019212020110E0000E01088881846
:1041C0000000000F112020110E0000380808C83828
:1041D00008000000003F0000000000708808088808
:1041E0007000001C222121221C0000E01008081091
:1041F000E0000000312222110F00000000C0C000CA
:1042000000000000003030000000000000800000CE
:1042100000000000806000000000000080402010CE
:1042200008000001020408102000404040404040C7
:10423000400004040404040404000008102040802A
:10424000000000201008040201000070480808085F
:10425000F0000000003036010000C030C828E8102F
:10426000E0000718272423140B000000C038E000EA
:104270000000203C23020227382008F88888887034
:104280000000203F202020110E00C0300808080840
:104290003800071820202010080008F80808081027
:1042A000E000203F202020100F0008F88888E80850
:1042B0001000203F20202320180008F88888E808F4
:1042C0001000203F200003000000C030080808381C
:1042D000000007182020221E020008F8080000082D
:1042E000F808203F210101213F20000808F80808B4
:1042F00000000020203F2020000000000808F808EF
:104300000800C08080807F00000008F888C028185E
:104310000800203F20012638200008F8080000008F
:104320000000203F20202020300008F8F800F8F896
:104330000800203F003F003F200008F830C0000880
:10434000F808203F200007183F00E0100808081078
:10435000E0000F10202020100F0008F808080808BF
:10436000F000203F210101010000E01008080810C2
:10437000E0000F18242438504F0008F888888888F7
:104380007000203F2000030C3020007088080808CF
:1043900038000038202121221C00180808F80808DD
:1043A00018000000203F2000000008F80800000866
:1043B000F808001F202020201F000878880000C86F
:1043C0003808000007380E010000F80800F800085F
:1043D000F800033C0700073C030008186880806869
:1043E000180820302C03032C30200838C800C838A7
:1043F00008000000203F2000000010080808C8380E
:1044000008002038262120201800000000FE0202AB
:1044100002000000007F40404000000C30C000005F
:104420000000000000010638C00000020202FE0089
:104430000000004040407F00000000000402020233
:104440000400000000000000000000000000000068
:104450000000808080808080808000020204000054
:10446000000000000000000000000000808080804C
:1044700000000019242222223F2008F8008080003A
:104480000000003F112020110E00000000808080FD
:104490000000000E11202020110000000080808804
:1044A000F800000E112020103F2000008080808046
:1044B0000000001F222222221300008080F0888842
:1044C00088180020203F202000000000808080808D
:1044D0008000006B94949493600008F800808080C2
:1044E0000000203F210000203F200080989800001D
:1044F00000000020203F202000000000008098984D
:10450000000000C08080807F000008F800008080EC
:104510008000203F24022D302000000808F8000011
:1045200000000020203F20200000808080808080CC
:104530008000203F20003F20003F8080008080805E
:104540000000203F210000203F200000808080806C
:104550000000001F202020201F008080008080009D
:10456000000080FFA12020110E000000008080804C
:104570008000000E112020A0FF80808080008080BD
:10458000800020203F2120000100000080808080EA
:1045900080000033242424241900008080E08080DF
:1045A00000000000001F202000008080000000802C
:1045B0008000001F202020103F208080800000808D
:1045C000808000010E30080601008080008000809D
:1045D00080800F300C030C300F0000808000808042
:1045E00080000020312E0E3120008080800000806D
:1045F000808080818E70180601000080808080801D
:1046000080000021302C2221300000000000807C3E
:10461000020200000000003F404000000000FF00D8
:10462000000000000000FF0000000002027C80008B
:1046300000000040403F00000000000601010202AF
:10464000040400000000000000000000800000E002
:10465000020418000000408000000000000000007C
:1046600000000000000000000000100C0300003FEC
:1046700040404040407800010E0000000000000073
:10468000000000000000000000000014A4442434D6
:10469000AD6624940444A41400000000000000004F
:1046A00000000000000000000000080908080909D7
:1046B00009FD09090B0808090800000000000000B6
:1046C000000000000000000000001010D0FF90501B
:1046D00020504C434C50204040000000000000009F
:1046E00000000000000000000000040300FF004183
:1046F0004458414E60584740400000000000000010
:10470000000000000000000000001060028C00FEAD
:1047100002F202FE00F800FF0000000000000000AE
:104720000000000000000000000004047E0180473B
:10473000300F10270047807F0000000000000000BD
:104740000000000000000000000040422410FF00B4
:10475000844444447F4444440400000000000000BA
:1047600000000000000000000000222212120AFED9
:1047700042270A1222324A42420000000000000092
:1047800000000000000000000000001715D555577C
:10479000557D555755D51517000000000000000045
:1047A000000000000000000000004040407F555520
:1047B00055555555557F4040400000000000000011
:1047C000000000000000000000000000F80808F8E9
:1047D0000C0B08F80808F8000000000000000000BA
:1047E0000000000000000000000040407F40407FCB
:1047F0004040407F40407F404000000000000000FB
:10480000000000000000000000000824236AAA2A1B
:10481000AA6A2A2A2AEA0202000000000000000018
:10482000000000000000000000001011151515FF29
:1048300015151511100F3040F800000000000000A1
:104840000000000000000000000030313233343539
:1048500036373839414243444546403058003031BC
:1048600032333435363738396162636465664030D7
:1048700078000400000800000000000000020001B1
:1048800000001000A44800080000002050000000B4
:1048900028010008F448000850000020302F0000D4
:1048A00044010008000000000000000000000000BB
:1048B000000000000000000000A24A040000000008
:1048C00000000000010203040607080900000000C0
:1048D00000000000000000000000000000000000D8
:1048E0000000000102030401020304060708090294
:0448F00004060800B2
:04000005080000ED02
:00000001FF
